:10000000FE2F00308A000408840A8207003451342D
:10001000753465342034743465342034703461347C
:100020007334683461342E342E342E343F3420340B
:100030002034203420342034003448346F346C347D
:100040006134203472346534743475347834203437
:060050003A3429340034AB
:100C8E00F600760884000120003803190800760863
:100C9E0084000120E5260130F5007508F607482E80
:100CAE008312031306115B2E000083120313061525
:100CBE00602E00008312031306114230F000F00B79
:100CCE00662E000008009C30F600D730F500F50BBC
:100CDE006E2EF60B6E2E03306D271430F600793023
:100CEE00F500F50B782EF60B782E7D2E03306D2742
:100CFE000730F6007D30F500F50B832EF60B832EB4
:100D0E0003306D271030F500F50B8B2E00000230EE
:100D1E006D2728306D2708306D2701306D270C3078
:100D2E006D2707306D270800831603138501831284
:100D3E0003138501831603138601831203138601A1
:100D4E008B0107309F00831603138C016A26023035
:100D5E006D2701306D2717304726C0306D270130C3
:100D6E00472683120313A0010A3020020318D72E40
:100D7E0018306D270230FD008630FC009930FB00E4
:100D8E00FB0BC72EFC0BC72EFD0BC72E0130FB0035
:100D9E007B0883120313A0070A302002031CBF2E08
:100DAE001030FD003930FC001B30FB00FB0BDD2E3C
:100DBE00FC0BDD2EFD0BDD2EE42EAE2EF400831289
:100DCE000313061106147408F10004300310F10C1D
:100DDE00FF3E031DED2E7108F2007208F300013084
:100DEE007305F10005087106FE397106850073085A
:100DFE00F1000310710C0139F200F20D05087206B4
:100E0E00FD39720685007308F10002300310F10CF3
:100E1E00FF3E031D0D2F71080139F200F20DF20D88
:100E2E0005087206FB39720685007308F10003305F
:100E3E000310F10CFF3E031D1F2F71080139F20044
:100E4E00F20DF20DF20D05087206F73972068500E5
:100E5E00572601307405F10083120313050871063D
:100E6E00FE39710685007408F1000310710C01390A
:100E7E00F200F20D05087206FD397206850074083F
:100E8E00F10002300310F10CFF3E031D492F7108D3
:100E9E000139F200F20DF20D05087206FB397206E9
:100EAE0085007408F10003300310F10CFF3E031DA2
:100EBE005B2F71080139F200F20DF20DF20D0508EB
:100ECE007206F7397206850057260800F400831261
:100EDE000313061106107408F10004300310F10C10
:100EEE00FF3E031D752F7108F2007208F3000130EA
:100EFE007305F10005087106FE3971068500730849
:100F0E00F1000310710C0139F200F20D05087206A2
:100F1E00FD39720685007308F10002300310F10CE2
:100F2E00FF3E031D952F71080139F200F20DF20DEF
:100F3E0005087206FB39720685007308F10003304E
:100F4E000310F10CFF3E031DA72F71080139F200AB
:100F5E00F20DF20DF20D05087206F73972068500D4
:100F6E00572601307405F10083120313050871062C
:100F7E00FE39710685007408F1000310710C0139F9
:100F8E00F200F20D05087206FD397206850074082E
:100F9E00F10002300310F10CFF3E031DD12F71083A
:100FAE000139F200F20DF20D05087206FB397206D8
:100FBE0085007408F10003300310F10CFF3E031D91
:100FCE00E32F71080139F200F20DF20DF20D050852
:100FDE007206F7397206850057260D30F200FB3087
:100FEE00F100F10BF82FF20BF82FFD2F0800830103
:020FFE009B2E28
:02400E00EDFFC4
:00000001FF
