:020000001028C6
:10000800FE00030EF0000408F1000A08F200831253
:1000180003137F08F30017281128F801F901FA01E2
:10002800FB01830136280130FA070318FB0A003068
:10003800FB071E307A067B04031D2A280130F807C7
:100048000318F90A0030F907FA01FB010B117308CC
:10005800FF0072088A0071088400700E8300FE0E8B
:100068007E0E0900F801F901FA01FB01831603135A
:10007800860183120313860181010F30831603134F
:100088008100A0308B007808831286000F300602AA
:06009800031C472810289C
:02400E00EDFFC4
:00000001FF
