:040000001DEF15F0EB
:1008000000010000000A00000064000000E803008E
:100810000010270000A086010040420F008096983B
:100820000000E1F50500CA9A3B00803FCDCC3DD7E2
:10083000233C12833AB7D138C62737388635C0D61D
:1008400033CC2B32708930E7DB2EE53C1E42A20D03
:1008500000803F00204100C842007A44401C4650BE
:10086000C34724744997184BBCBE4C6B6E4E03159E
:100870005079AD60F3497154656D703A20002532AE
:100880002E31660043000000000E00010001686F79
:10089000480E00010001676F9BEF09F000010001A5
:1008A0008451250AD8B409D044C0D9FF45C0DAFF25
:1008B000000184C0DFFF99EF09F0000E0001000184
:1008C0007C6F000E00017B6F000E000100017A6F4B
:1008D000000E0001796F46C0F6FF47C0F7FF080021
:1008E000F550B0EC14F0D8A039D0000E0001000192
:1008F0007C6F000E00017B6F7BC011F07CC012F09A
:10090000000E146E0A0E136E2FEC14F011C07BF063
:1009100012C07CF0D00E4B6EFF0E4C6E46C0F6FF40
:1009200047C0F7FF0800F5504D6E4E6A4B504D26FC
:100930004C504E224D50000100017B274E500001CB
:1009400000017C23464A472A46C0F6FF47C0F7FF0E
:100950000800F550B0EC14F0D8B0CED746C0F6FF82
:1009600047C0F7FF0800F5502E0AD8A436D0000182
:1009700000017A8D464A472A000E00010001836F6C
:10098000000E0001826F1ED082C011F083C012F0F1
:10099000000E146E0A0E136E2FEC14F046C0F6FF14
:1009A00047C0F7FF0800F5501126000E1222D00EA6
:1009B000112400010001826FFF0E12200001836FDD
:1009C000464A472A46C0F6FF47C0F7FF0800F550E1
:1009D000B0EC14F0D8A010D0D7D7000E0001000161
:1009E000836F000E0001826F000100017A8904D03C
:1009F000000100017A8515D046C0F6FF47C0F7FF19
:100A0000464A472A08000001F5CF84F000018451CE
:100A1000000AD8B4A9EF09F0660AD8B4E9D79BEF69
:100A200009F0070E000100017A15D8B4A5D3000122
:100A300000017AA907D0000E00010001836F060EA5
:100A40000001826F67C0D9FF68C0DAFF0001DECF06
:100A50007FF00001DECF80F00001DDCF81F0030EDA
:100A6000000100016727000E00016823000100015A
:100A70008151800A800F07E1000E0001805D03E1D3
:100A8000000E00017F5DD8B012D07FC001F080C0A1
:100A900002F081C003F0C5EC14F001C07FF002C089
:100AA00080F003C081F0030E000100017913000EF5
:100AB000000100017E6F000E00017D6F7F0E0001BE
:100AC000000181150001801100017F11D8B498D078
:100AD000820E4B6EFF0E4C6E00017FC04DF0000188
:100AE00080C04EF0000181C04FF0000182C050F084
:100AF000100E05D0D89050324F324E324D32E82E83
:100B0000F9D74D504B24000100017D6F0001000E0C
:100B10004C207E6F000100017D07D8A07E077DC0BC
:100B200011F07EC012F0000E146E030E136E2FEC47
:100B300014F011C07DF012C07EF07DC008F07EC0C0
:100B400009F0000E0B6E0A0E0A6ECBEC10F008C016
:100B50007DF009C07EF0000100017E51800AF36E35
:100B6000800EF35C000ED8B47D5DD8B005D00001D6
:100B700000017D07D8A07E07000100017D5100081B
:100B8000B0EC09F035C076F036C077F037C078F0B9
:100B90000001000E366E0001760E356E7FC037F014
:100BA00080C038F081C039F0F3EC13F076C001F06A
:100BB00077C002F078C003F0000E046E800E056E60
:100BC0003F0E066E18EC12F0D8B006D000010001FE
:100BD0007D07D8A07E0714D076C001F077C002F060
:100BE00078C003F0000E046E200E056E410E066EF6
:100BF00018EC12F0D8A004D0000100017D4B7E2B30
:100C0000000100018351800AF36E800EF35C0D0E2B
:100C1000D8B4825DD8B013D00001000E406E000140
:100C20007F0E3F6E00010001825198EC0BF035C041
:100C300041F036C042F037C043F011EC14F000012F
:100C400000017E51800AF36E800EF35C0A0ED8B468
:100C50007D5DD8B02AD07F0E000100018115000112
:100C6000801100017F11D8B470D07FC017F080C010
:100C700018F081C019F061EC10F017C04BF018C0EB
:100C80004CF019C04DF01AC04EF04E504B104C10A5
:100C90004D10D8A45AD0000100017E51800A800F67
:100CA000020ED8B47D5DD8A050D076C001F077C0D8
:100CB00002F078C003F0700E046E890E056E400ECF
:100CC000066E18EC12F0D8B003D00001F70E02D077
:100CD0000001F80E00017D27FF0E00017E230001B8
:100CE00000017D51B0EC09F035C076F036C077F0E8
:100CF00037C078F07FC001F080C002F081C003F0FF
:100D000076C004F077C005F078C006F0FCEC0EF079
:100D100001C063F002C064F003C065F004C066F077
:100D200063C071F064C072F065C073F066C074F0A7
:100D3000000E000100017F6F000E00010001806FB6
:100D4000000E00010001816F2FD07FC017F080C01E
:100D500018F081C019F061EC10F017C071F018C0E4
:100D600072F019C073F01AC074F00001000E1C6E0E
:100D700000017F0E1B6E71C009F072C00AF073C0D3
:100D80000BF074C00CF0D8EC12F009C01DF00AC0D2
:100D90001EF00BC01FF0D5EC13F0000E0001000197
:100DA0007E6F000E00017D6F4B6E010E0001000191
:100DB000846F4B500001000184510A0AD8B421D03D
:100DC000000100018451040D010EF324F66E080E9B
:100DD000F420F76E0900F55000010001715D090073
:100DE000F550000172590900F550000173590900CE
:100DF000F55000017459D8A004D000010001842BE3
:100E0000D9D7000184C04BF04C6A4BBE4C060001A0
:100E1000000182514B260001000183514C22000148
:100E200000017D514B26000100017E514C224B50A8
:100E3000000100017B5F4C50000100017C5B000160
:100E4000000183518211D8B405D0000100017B0755
:100E5000D8A07C07030E0001000179154B6E000E2F
:100E6000000100017A154C6E4C504B10D8B40ED0D6
:100E700008D044C0D9FF45C0DAFF200EDF6E444AD7
:100E8000452A000100017B07D8A07C070001000172
:100E90007C51800AF36E800EF35C010ED8B47B5D4A
:100EA000D8B0E7D7030E0001000179154B6E000E94
:100EB000000100017A154C6E4C504B10D8B453D041
:100EC00044C0D9FF45C0DAFF2D0E4AD071C001F0F1
:100ED00072C002F073C003F074C004F0000100019E
:100EE0008451040D010EF324F66E080EF420F76E03
:100EF0000900F5CF05F00900F5CF06F00900F5CFA0
:100F000007F00A00F5CF08F060EC12F001C069F0BC
:100F100002C06AF003C06BF004C06CF069C001F05D
:100F20006AC002F06BC003F06CC004F00A0E056EDC
:100F3000000E066E000E076E000E086EA3EC12F097
:100F400001C069F002C06AF003C06BF004C06CF02D
:100F5000000100016951300F44C0D9FF45C0DAFFDC
:100F6000DF6E444A452A00010001840700018429FC
:100F7000D8B40ED0ABD744C0D9FF45C0DAFF300E8D
:100F8000DF6E444A452A000100017D07D8A07E0794
:100F9000000100017E51800AF36E800EF35C010EA9
:100FA000D8B47D5DD8B0E7D7000100018351800A35
:100FB000800F090ED8B4825DD8A007D04B6E080E02
:100FC00000010001846F4B5002D082C084F0000108
:100FD0000001845100010001825F000E000184BF06
:100FE000FF0E00010001835B000100018451D8B4B1
:100FF00008D044C0D9FF45C0DAFF2E0EDF6E444A48
:10100000452A000100018451B0EC09F035C060F0C0
:1010100036C061F037C062F07FC029F080C02AF08E
:1010200081C02BF060C026F061C027F062C028F0BC
:101030007EEC0FF026C017F027C018F028C019F07A
:1010400061EC10F017C071F018C072F019C073F0A5
:101050001AC074F075D071C001F072C002F073C094
:1010600003F074C004F0000100018451040D010E6E
:10107000F324F66E080EF420F76E0900F5CF05F0A4
:101080000900F5CF06F00900F5CF07F00A00F5CF0B
:1010900008F060EC12F001C06DF002C06EF003C009
:1010A0006FF004C070F06DC001F06EC002F06FC050
:1010B00003F070C004F00A0E056E000E066E000EFE
:1010C000076E000E086EA3EC12F001C06DF002C0B6
:1010D0006EF003C06FF004C070F0000100016D51AC
:1010E000300F44C0D9FF45C0DAFFDF6E444A452ABD
:1010F00071C001F072C002F073C003F074C004F05C
:10110000000100018451040D010EF324F66E080E57
:10111000F420F76E0900F5CF05F00900F5CF06F0D1
:101120000900F5CF07F00A00F5CF08F0A3EC12F0A4
:1011300001C071F002C072F003C073F004C074F01B
:1011400000010001840700018429D8B40ED083D7A0
:1011500044C0D9FF45C0DAFF300EDF6E444A452A4D
:10116000000100018207D8A083070001000183511C
:101170008211D8B4E0D0ECD7000100018351821174
:10118000D8A40CD0000100017451711172117311B7
:10119000D8A404D000010001824B832B800E0001F3
:1011A000000184BF7F0E4B6E0001000182510001DF
:1011B0000001845D000100018351800A4B58D8B0C2
:1011C00003D082C084F01ED0000100018351800A48
:1011D0004B6E00010001845100010001825D800E10
:1011E0000001000184BF7F0E4B58D8B00BD0000126
:1011F0000001845100010001826F0001836B000136
:1012000082BF8307000100017C517B11D8B413D049
:10121000030E0001000179154B6E000E0001000164
:101220007A154C6E4C504B10D8B405D0000100011B
:101230007B07D8A07C07000100017AAD26D0000111
:1012400000018351800A4B6E000100017B510001B7
:101250000001825D000100017C51800A4B58D8B02A
:101260000DD0000100018251000100017B5F0001EF
:1012700000018351000100017C5B07D0000E0001DA
:1012800000017C6F000E00017B6F800E00010001E9
:1012900084BF7F0E4B6E000100017B5100010001F5
:1012A000845D000100017C51800A4B58D8B00ED0FB
:1012B000000100018451000100017B5F000E00016C
:1012C00084BFFF0E000100017C5B07D0000E00010F
:1012D00000017C6F000E00017B6F000100017C515A
:1012E0007B11D8B412D044C0D9FF45C0DAFF200E1C
:1012F000DF6E444A452A000100017B07D8A07C0725
:1013000000017C517B11D8A4EED7030E000100012F
:1013100079154B6E000E000100017A154C6E4C5091
:101320004B10D8B408D044C0D9FF45C0DAFF2D0E09
:10133000DF6E444A452A46C0F6FF47C0F7FF464ADB
:10134000472A08000001F5CF84F0000184674EEFC2
:1013500004F044C0D9FF45C0DAFF000EDF6E120072
:10136000E8CF3BF03BAEEAD03B6C3B50800A120F1B
:10137000D8A08BD0000E146E030E136E000E0B6EF1
:101380000A0E0A6E000E046E640E036E3B50016E70
:10139000026A01BE0206CAEC11F001C008F002C0E8
:1013A00009F0CBEC10F0090E0824116E000E092094
:1013B000126E2FEC14F0290E1124F66E080E122076
:1013C000F76E0900F5CF29F00900F5CF2AF00A00E1
:1013D000F5CF2BF0000E146E030E136E000E0B6E85
:1013E000640E0A6E3B50086E096A08BE0906CBEC13
:1013F00010F0120E0824116E000E0920126E2FEC50
:1014000014F0290E1124F66E080E1220F76E090052
:10141000F5CF26F00900F5CF27F00A00F5CF28F028
:101420007EEC0FF026C038F027C039F028C03AF023
:1014300038C026F039C027F03AC028F0000E146EEC
:10144000030E136E000E046E0A0E036E3B50016E07
:10145000026A01BE0206CAEC11F001C011F002C01E
:1014600012F02FEC14F0290E1124F66E080E122043
:10147000F76E0900F5CF29F00900F5CF2AF00A0030
:10148000F5CF2BF07EEC0FF03AD13B50800A750F70
:10149000D8A04DD0000E146E030E136E000E0B6E0E
:1014A0000A0E0A6E3B50086E096A08BE0906CBECAC
:1014B00010F0090E0824116E000E0920126E2FEC98
:1014C00014F0290E1124F66E080E1220F76E090092
:1014D000F5CF26F00900F5CF27F00A00F5CF28F068
:1014E000000E146E030E136E000E046E0A0E036ED1
:1014F0003B50016E026A01BE0206CAEC11F001C047
:1015000011F002C012F02FEC14F0290E1124F66E27
:10151000080E1220F76E0900F5CF29F00900F5CF6B
:101520002AF00A00F5CF2BF07EEC0FF0E8D03B500C
:10153000030D290EF324F66E080EEED03B50800A00
:10154000120FD8A08BD0000E146E030E136E000E77
:101550000B6E0A0E0A6E000E046E640E036E3B5094
:10156000016E026A01BE0206CAEC11F001C008F069
:1015700002C009F0CBEC10F0090E0824116E000E29
:101580000920126E2FEC14F0500E1124F66E080E86
:101590001220F76E0900F5CF29F00900F5CF2AF0E7
:1015A0000A00F5CF2BF0000E146E030E136E000E22
:1015B0000B6E640E0A6E3B50086E096A08BE09067F
:1015C000CBEC10F0120E0824116E000E0920126EE2
:1015D0002FEC14F0500E1124F66E080E1220F76E48
:1015E0000900F5CF26F00900F5CF27F00A00F5CF66
:1015F00028F07EEC0FF026C038F027C039F028C064
:101600003AF038C026F039C027F03AC028F0000E72
:10161000146E030E136E000E046E0A0E036E3B5022
:10162000016E026A01BE0206CAEC11F001C011F09F
:1016300002C012F02FEC14F0500E1124F66E080EBA
:101640001220F76E0900F5CF29F00900F5CF2AF036
:101650000A00F5CF2BF07EEC0FF051D03B50800A02
:10166000750FD8A053D0000E146E030E136E000E2B
:101670000B6E0A0E0A6E3B50086E096A08BE090618
:10168000CBEC10F0090E0824116E000E0920126E2A
:101690002FEC14F0500E1124F66E080E1220F76E87
:1016A0000900F5CF26F00900F5CF27F00A00F5CFA5
:1016B00028F0000E146E030E136E000E046E0A0E58
:1016C000036E3B50016E026A01BE0206CAEC11F0C5
:1016D00001C011F002C012F02FEC14F0500E1124D2
:1016E000F66E080E1220F76E0900F5CF29F00900FA
:1016F000F5CF2AF00A00F5CF2BF07EEC0FF026C0D4
:1017000035F027C036F028C037F011D03B50030D1C
:10171000500EF324F66E080EF420F76E0900F5CF94
:1017200035F00900F5CF36F00A00F5CF37F012009A
:10173000E8CF3EF06D0E3E6499D0000E146E030E9D
:10174000136E000E0B6E0A0E0A6E000E046E640E0F
:10175000036E3EC001F0026ACAEC11F001C008F04D
:1017600002C009F0CBEC10F0090E0824116E000E37
:101770000920126E2FEC14F0290E1124F66E080EBB
:101780001220F76E0900F5CF29F00900F5CF2AF0F5
:101790000A00F5CF2BF0000E146E030E136E000E30
:1017A0000B6E640E0A6E3EC008F0096ACBEC10F0B6
:1017B000120E0824116E000E0920126E2FEC14F088
:1017C000290E1124F66E080E1220F76E0900F5CFCF
:1017D00026F00900F5CF27F00A00F5CF28F07EECBF
:1017E0000FF026C03BF027C03CF028C03DF0000EB3
:1017F000146E030E136E000E046E0A0E036E3EC0CE
:1018000001F0026ACAEC11F001C011F002C012F03E
:101810002FEC14F0290E1124F66E080E1220F76E2C
:101820000900F5CF29F00900F5CF2AF00A00F5CF1D
:101830002BF03BC026F03CC027F03DC028F07EECEA
:101840000FF026C038F027C039F028C03AF038C071
:1018500026F039C027F03AC028F0000E296E000E9D
:101860002A6E3F0E2B6E7EEC0FF079D00A0E3E648E
:101870005DD0000E146E030E136E000E046E0A0E81
:10188000036E3EC001F0026ACAEC11F001C011F013
:1018900002C012F02FEC14F0290E1124F66E080E7F
:1018A0001220F76E0900F5CF29F00900F5CF2AF0D4
:1018B0000A00F5CF2BF0000E146E030E136E000E0F
:1018C0000B6E0A0E0A6E3EC008F0096ACBEC10F0EF
:1018D000090E0824116E000E0920126E2FEC14F070
:1018E000290E1124F66E080E1220F76E0900F5CFAE
:1018F00026F00900F5CF27F00A00F5CF28F07EEC9E
:101900000FF026C03BF027C03CF028C03DF03BC0A4
:1019100026F03CC027F03DC028F0000E296E000ED6
:101920002A6E3F0E2B6E7EEC0FF019D03E50030D49
:10193000290EF324F66E080EF420F76E0900F5CF99
:1019400026F00900F5CF27F00A00F5CF28F0000EA9
:10195000296E000E2A6E3F0E2B6E7EEC0FF026C015
:1019600035F027C036F028C037F012000BC00FF05A
:10197000106A116A0A340F3601E310800F50146E9A
:101980000EC00FF0106A116A0D340F3601E310809B
:101990000F50136E1450D8B40CD01350145CD8B040
:1019A0000FD01450000813240F6E190E0F5CD8A02E
:1019B00007D00CC009F00DC00AF00EC00BF0B1D07A
:1019C0001350D8B40CD01450135CD8B00FD01350AF
:1019D000000814240F6E190E0F5CD8A007D009C0A0
:1019E00009F00AC00AF00BC00BF09BD00F6E060E78
:1019F000126E0F500BBE128E0EBE128C0A8EFF0E90
:101A00000916FF0E0A16000E0B160D8EFF0E0C1691
:101A1000FF0E0D16000E0E161350145CD8B01AD01F
:101A2000D8900C360D360E36130613501418D8B451
:101A30000DD0120612C00FF0070E0F16D8B406D044
:101A4000EFD7D8900B320A320932142A135014629D
:101A5000F8D71DD01450135CD8B019D0D8900936DF
:101A60000A360B36140613501418D8B40DD01206CB
:101A700012C00FF0070E0F16D8B406D0EFD7D890CB
:101A80000E320D320C32132A13501462F8D712AEF4
:101A90000CD0FF0E091AFF0E0A1AFF0E0B1A010EC8
:101AA0000926000E0A22000E0B2212AC0CD0FF0EEB
:101AB0000C1AFF0E0D1AFF0E0E1A010E0C26000E48
:101AC0000D22000E0E220F6E000E126E0F500950E6
:101AD0000C260A500D220B500E220EAE10D0FF0E17
:101AE0000C1AFF0E0D1AFF0E0E1A010E0C26000E18
:101AF0000D22000E0E220F6E010E126E0F500CC042
:101B000001F00DC002F00EC003F014C004F012C0CA
:101B100005F023EC11F001C009F002C00AF003C087
:101B20000BF01200EBEC14F0000E00010001946FBA
:101B3000000E0001936F000E00010001906F000E77
:101B400000010001916F000E00010001926F860EEE
:101B500000010001866F9F0E0001856F030E026E6B
:101B6000E80E016E9AEC14F0516E040E016E5150A5
:101B7000526E0E0E026E5250ED0E0AEC13F0050E70
:101B80000EEC15F0280E77EC11F04CEC14F0000977
:101B9000D8A4FBD7060EB5EC13F00C0EB5EC13F081
:101BA000410E516EEE0EE82EFED7512EFCD700D01E
:101BB000000E68EC13F0FA0E00F0E82EFDD7080EC8
:101BC000036E770E026E3AEC13F0FA0E00F0E82E78
:101BD000FDD70D0E68EC13F0080E036E840E026E36
:101BE0003AEC13F02BEC15F017EC15F00009D8A423
:101BF000FBD722EC15F001C093F002C094F0000E68
:101C0000386E800E396E440E3A6E000E296EA00EAC
:101C10002A6E400E2B6E93C009F094C00AF084EC3B
:101C200014F009C026F00AC027F00BC028F07EECA3
:101C30000FF026C035F027C036F028C037F0F4EC9E
:101C40000FF035C08DF036C08EF037C08FF08DC0EC
:101C500026F08EC027F08FC028F0000E296EC80E27
:101C60002A6E420E2B6E7EEC0FF026C090F027C03D
:101C700091F028C092F0070E68EC13F00001000EFE
:101C8000456E0001870E446E080E476E7E0E466E4E
:101C900090C048F091C049F092C04AF044EC04F082
:101CA0000001000E036E0001870E026E3AEC13F085
:101CB000010E026E2C0E016E9AEC14F093D701C047
:101CC00007F002C008F003C009F004C00AF0180EC3
:101CD00005D0D8900A32093208320732E82EF9D7F7
:101CE0000750106E106601D06DD004C007F005C01B
:101CF00008F006C009F007C00AF0180E05D0D89009
:101D00000A32093208320732E82EF9D707500F6E2F
:101D10000F6601D057D0038EFF0E0116FF0E02167C
:101D2000FF0E0316000E0416068EFF0E0416FF0E9D
:101D30000516FF0E0616000E0716000E0B6E000E9F
:101D40000C6E000E0D6E000E0E6E7F0E105E0F50AC
:101D5000A00F105E076E200E0F6E0750D8900B3646
:101D60000C360D360E360450015C055002580650F4
:101D7000035807500458D8A009D00450015E0550FC
:101D8000025A0650035A0750045A0B80D890013665
:101D90000236033604360F2EE1D710AE10D01050A5
:101DA000800A076EE10E800A075CD8A00BD0D8909D
:101DB0000E320D320C320B32103EF9D714D01F0EFA
:101DC00010640FD0000E016E000E026E000E036E46
:101DD000000E046E10D0D8900B360C360D360E3631
:101DE00010061066F8D70BC001F00CC002F00DC051
:101DF00003F00EC004F0120003C007F0086A096A7D
:101E00000234073601E3088007500F6E0F6601D0D9
:101E10005BD006C007F0086A096A0534073601E39B
:101E2000088007500E6E0E6601D04ED0028EFF0E57
:101E30000116FF0E0216000E0316058EFF0E041685
:101E4000FF0E0516000E0616000E0A6E000E0B6E33
:101E5000000E0C6E000E0D6E7F0E0F5E0E50980F72
:101E60000F5E076E180E0E6E0750D8900A360B36AE
:101E70000C360D360450015C0550025806500358CC
:101E8000D8A007D00450015E0550025A0650035AEC
:101E90000A80D8900136023603360E2EE6D70FAEF2
:101EA00010D00F50800A076EE90E800A075CD8A098
:101EB0000BD0D8900D320C320B320A320F3EF9D7CC
:101EC00014D0170E0F640FD0000E016E000E026EBC
:101ED000000E036E000E046E10D0D8900A360B363A
:101EE0000C360D360F060F66F8D70AC001F00BC08E
:101EF00002F00CC003F00DC004F0120028C02CF05A
:101F00002D6A2E6A27342C3601E32D802C502F6E3B
:101F10002F6601D00CD02BC02CF02D6A2E6A2A34EB
:101F20002C3601E32D802C50346E346607D0000E21
:101F3000266E000E276E000E286E55D034507B0F93
:101F40002F2628C034F02B50341A800E3416278EDA
:101F50002A8EFF0E2916FF0E2A16000E2B16000ED3
:101F6000306E000E316E000E326E2C6E070E336E28
:101F70002C5026A006D0295030262A5031222B5032
:101F80003222D890283227322632D89029362A3663
:101F90002B36332EEED72C6E090E336E2C5026A026
:101FA00006D0295030262A5031222B503222D89088
:101FB000283227322632D890323231323032332E24
:101FC000EED730C001F031C002F032C003F02FC0B4
:101FD00004F034C005F023EC11F001C026F002C07B
:101FE00027F003C028F0120037C03BF03C6A3D6A7E
:101FF00036343B3601E33C803B50426E426601D0B2
:102000000CD03AC03BF03C6A3D6A39343B3601E3C0
:102010003C803B50436E436607D0000E356E000E89
:10202000366E000E376E4CD0000E3F6E000E406EC6
:10203000000E416E4350890F425E37C043F03A5064
:10204000431A800E4316368EFF0E3516FF0E3616D7
:10205000000E3716398EFF0E3816FF0E3916000E99
:102060003A163B6E180E3E6E3B50D8903F364036C7
:1020700041363850355C395036583A503758D8A028
:1020800007D03850355E3950365A3A50375A3F806B
:10209000D8903536363637363E2EE7D73FC001F07A
:1020A00040C002F041C003F042C004F043C005F05C
:1020B00023EC11F001C035F002C036F003C037F058
:1020C000120019C01BF01C6A1D6A18341B3601E38C
:1020D0001C801B50256E256601D038D0170E1B6E54
:1020E00017C01CF018C01DF019C01EF01B281F6E71
:1020F00004D0D8901E321D321C321F2EFAD71C502D
:10210000206E188EFF0E1716FF0E1816000E1916E9
:102110001750216E1850226E1950236E246A8E0EAD
:10212000255E25AE10D02550800A1B6EF10E800A68
:102130001B5CD8A00BD0D89024322332223221321B
:10214000253EF9D714D0170E25640FD0000E176E58
:10215000000E186E000E196E000E1A6E1BD0D8906D
:10216000213622362336243625062566F8D7205018
:10217000D8B408D0241E231E221E216C000E222259
:102180002322242221C017F022C018F023C019F006
:1021900024C01AF012000C6E000E0E6E0C500B5084
:1021A000800AF36E800EF35C000ED8B40A5CD8B0DF
:1021B00008D00A6C0B1ED8B00B2A0C6E010E0E6EE6
:1021C0000C500950800AF36E800EF35C000ED8B4F8
:1021D000085CD8B006D0086C091ED8B0092A010ED8
:1021E0000E1A000E106E000E0F6E0B500A10D8B4AF
:1021F0001ED00C6E010E0D6E0C5004D0D8900A3615
:102200000B360D2A0BAEFAD7D8900F3610360A507F
:10221000085C0B500958D8A005D00A50085E0B5036
:10222000095A0F80D8900B320A320D2EEDD70E507E
:10223000D8B404D00F6C101ED8B0102A0FC008F00C
:1022400010C009F012000450D8B405D0015002109B
:102250000310D8A40CD0000E016E000E026E000E0A
:10226000036E44D0042AD890033202320132000EA9
:102270000114066E000E0214076EFE0E0314086EA3
:10228000065007100810D8B40CD0ECD7042A010E61
:102290000126000E0222000E0322D89003320232E1
:1022A0000132000E0114066E000E0214076EFF0EBE
:1022B0000314086E065007100810D8B406D0E6D7ED
:1022C0000406D89001360236033602AEF9D704A0D0
:1022D000029ED8900432045003120550D8A4038EF5
:1022E00001C001F002C002F003C003F01200E8CF09
:1022F00005F0F00E8116F00E9316939C939A939826
:102300008A9C8A9A8A9827EC15F0300EB5EC13F067
:10231000050EF9EC14F0300EB5EC13F0010EF9ECEB
:1023200014F0320EB5EC13F04CEC14F00009D8A404
:10233000FBD74CEC14F00009D8A4FBD70550B5EC42
:1023400013F04CEC14F00009D8A4FBD7080EB5EC40
:1023500013F04CEC14F00009D8A4FBD70F0EB5EC29
:1023600013F04CEC14F00009D8A4FBD7010EB5EC27
:1023700013F04CEC14F00009D8A4FBD7040EB5EC14
:1023800013F04CEC14F00009D8A4FBD7800E68ECD5
:1023900013F01200056E000E076E05500250800A01
:1023A000F36E800EF35C000ED8B4015CD8B008D098
:1023B000016C021ED8B0022A056E010E076E055090
:1023C0000450800AF36E800EF35C000ED8B4035CF8
:1023D000D8B004D0036C041ED8B0042A04500310F3
:1023E000D8B41AD0056E010E066E055004D0D890F0
:1023F00003360436062A04AEFAD70350015C0450B3
:102400000258D8A004D00350015E0450025AD8905C
:1024100004320332062EF1D70750D8B404D0016C31
:10242000021ED8B0022A01C001F002C002F0120060
:1024300003AE16D001C007F002C008F003C009F0D7
:10244000071E081E091E072A000E08220922000E78
:102450000724016E000E0820026E800E0920036E14
:1024600006AE16D004C007F005C008F006C009F09B
:10247000071E081E091E072A000E08220922000E48
:102480000724046E000E0820056E800E0920066EDB
:10249000000E011A000E021A800E031A000E041A12
:1024A000000E051A800E061A0450015C05500258F1
:1024B00006500358D8B002D0D89001D0D88012006E
:1024C000000E0A6E000E0B6E000E0C6E000E0D6EEE
:1024D0000850051006100710D8B42CD0096E010E54
:1024E0000E6E095006D0D8900536063607360836E7
:1024F0000E2A08AEF8D7D8900A360B360C360D36B1
:102500000550015C06500258075003580850045803
:10251000D8A009D00550015E0650025A0750035A50
:102520000850045A0A80D890083207320632053221
:102530000E2EE1D70AC001F00BC002F00CC003F070
:102540000DC004F012000850051006100710D8B492
:1025500026D0096E010E0A6E095006D0D8900536B5
:102560000636073608360A2A08AEF8D70550015C49
:10257000065002580750035808500458D8A008D0F5
:102580000550015E0650025A0750035A0850045A7B
:10259000D89008320732063205320A2EE7D701C03A
:1025A00001F002C002F003C003F004C004F0120006
:1025B0000D6E8E0E116E0D5006D0D8900C320B326F
:1025C0000A320932112A000E09140D6E000E0A1487
:1025D0000E6E000E0B140F6EFF0E0C14106E1050CA
:1025E0000D100E100F10D8A4E8D709C001F00AC0D2
:1025F00002F00BC003F011C004F00D6E000E056E6A
:102600000D5023EC11F001C009F002C00AF003C024
:102610000BF01200E8CF05F0000EC26E000EC06E87
:10262000D89001303C0BC26E01C003F0033AF00EAB
:102630000316300E031602500F0B0310C16E05C0B7
:1026400003F0D8900336D8900336380E031605C031
:1026500004F0043A0F0E0416070E04160550800B02
:1026600004100310C06E01AE03D09E9C9D8CF28CB2
:10267000C280120019D04CEC14F00009D8A4FBD78A
:1026800002C0F6FF03C0F7FFF86A070EF76403D035
:102690000800F55005D0F6CFE9FFF7CFEAFFEF507D
:1026A00095EC13F0024A032A02C0F6FF03C0F7FFBD
:1026B000F86A070EF76403D00800F55005D0F6CF8E
:1026C000E9FFF7CFEAFFEF500009D8B41200D3D7E3
:1026D000E8CF04F0F00E9316F00E81160450016E50
:1026E000026A800E0112000E0212040E036E023402
:1026F00002320132032EFBD701500F0B81128A9C4C
:102700008A9AD8EC14F08A88D8EC14F08A98F00EE3
:10271000811604500F0B8112D8EC14F08A88D8EC83
:1027200014F08A980F0E93121200E8CF01F0F00E09
:102730009316F00E811601380F0B0F0B81128A8A47
:102740008A9CD8EC14F08A88D8EC14F08A98F00EA1
:10275000811601500F0B8112D8EC14F08A88D8EC46
:1027600014F08A980F0E93121200E8CF01F0F00EC9
:102770009316F00E811601380F0B0F0B81128A9CF5
:102780008A9AD8EC14F08A88D8EC14F08A98F00E63
:10279000811601500F0B8112D8EC14F08A88D8EC06
:1027A00014F08A980F0E931212001BC0D9FF1CC0A0
:1027B000DAFFDECF15F0DECF16F0DDCF17F01DC04B
:1027C00018F01EC019F01FC01AF069EC14F01BC0FD
:1027D000D9FF1CC0DAFF15C0DEFF16C0DEFF17C030
:1027E000DDFFDD52120035C0D9FF36C0DAFFDECF83
:1027F00026F0DECF27F0DDCF28F037C029F038C033
:102800002AF039C02BF07EEC0FF035C0D9FF36C06E
:10281000DAFF26C0DEFF27C0DEFF28C0DDFFDD5265
:1028200012003FC0D9FF40C0DAFFDECF09F0DECF93
:102830000AF0DDCF0BF041C00CF042C00DF043C0F8
:102840000EF0B6EC0CF03FC0D9FF40C0DAFF09C073
:10285000DEFF0AC0DEFF0BC0DDFFDD5212001150AB
:102860001302F3CF15F0F4CF16F011501402F3CF8A
:10287000F4FFF36AF3501526F45016221250130297
:10288000F3CFF4FFF36AF3501526F450162215C067
:1028900011F016C012F012008A8C8A9AD8EC14F04B
:1028A0008A88D8EC14F081A60AD08A98D8EC14F063
:1028B0008A88D8EC14F08A988A9C010E09D08A98EC
:1028C000D8EC14F08A88D8EC14F08A988A9C000E10
:1028D0001200000E181A000E191A800E1A1A15C0CE
:1028E00009F016C00AF017C00BF018C00CF019C0A0
:1028F0000DF01AC00EF0B6EC0CF009C015F00AC0CD
:1029000016F00BC017F0120009C001F00AC002F067
:10291000036A0C6E8E0E046E0C500D6E000E056E6A
:102920000D5023EC11F001C009F002C00AF003C001
:102930000BF01200000E056E000E046E0AD0070E9A
:10294000036E7D0EE82EFED7032EFCD700F0044A5E
:10295000052A0150045C02500558D8B01200EFD788
:10296000E8CF03F0016E000E026E01503A0E035CD8
:10297000D8B007D02F0E036404D0016E010E026E92
:10298000015002C001F0013012007F0E031402104A
:102990000110D8B406D0000E011A000E021A800EE3
:1029A000031A01C001F002C002F003C003F01200DC
:1029B00000F000F000F000F000F000F000F000F097
:1029C00000F000F000F000F000F000F000F000F087
:1029D00000F000F01200B484B482B480000E936E54
:1029E000928092829284010EC26EC2800C0EC16EE1
:1029F0001200E8CF02F00D0E016EFC0EE82EFED79D
:102A0000012EFCD7022EF7D71200E8CF01F0FA0E04
:102A100000F0E82EFDD7012EFAD71200E8CF01F022
:102A2000030EE82EFED700F0012EFAD71200C2A244
:102A300002D0010E01D0000E1200000EF86E00014F
:102A400092EF0DF0C450026EC350016E12006E0E74
:0A2A500005EC15F01200C28212001E
:020000040020DA
:08000000FFFFFFFFFFFFFFFF00
:020000040030CA
:0E000000000C191EFF8181FF0FC00FE00F40A2
:00000001FF
