:040000006AEF07F0AC
:100800000001000A006400E8031027253035640069
:100810000000000E1A6E130E196E3FD12450250AE7
:10082000D8B409D00FC0D9FF10C0DAFF24C0DFFF51
:100830000F4A102A32D1000E236E000E226E156E62
:10084000000E216E155003D02184114A122A11C0C6
:10085000F6FF12C0F7FF0800F550300AD8B4F4D7FD
:1008600011C0F6FF12C0F7FF0800F5502DEC07F09D
:10087000D8A032D0000E236E000E226E22C001F0EE
:1008800023C002F0000E046E0A0E036EC6EC06F0E2
:1008900001C022F002C023F0D00E156EFF0E166EBE
:1008A00011C0F6FF12C0F7FF0800F550176E186A66
:1008B000155017261650182217502226185023229A
:1008C000114A122A11C0F6FF12C0F7FF0800F550B6
:1008D0002DEC07F0D8B0D2D711C0F6FF12C0F7FF49
:1008E000114A122A0800F5CF24F02450000AD8B487
:1008F000DFD0640AD8B403D00D0AD8A4CED019C072
:10090000D9FF1AC0DAFFDECF1CF0DDCF1DF0020EDA
:100910001926000E1A221D50800AF36E800EF35C19
:10092000000ED8B41C5CD8B006D0030E21121C6C8B
:100930001D1ED8B01D2A156E010E246E15502450B0
:10094000050AD8B416D02450020D010EF324F66E19
:10095000080EF420F76E0900F5CF15F00900F5CF69
:1009600016F015501C5C16501D58D8A002D0242A31
:10097000E6D723502210D8B409D021C015F0030EB9
:100980001516D8B403D02206D8A02306800E24BEA4
:100990007F0E156E2250245C2350800A1558D8B063
:1009A00007D02450225E000E24BEFF0E235A04D02E
:1009B000000E236E000E226E21A41ED021C015F061
:1009C000030E1516D8B408D00FC0D9FF10C0DAFF37
:1009D0002D0EDF6E0F4A102A23502210D8B42DD0CE
:1009E0000FC0D9FF10C0DAFF300EDF6E0F4A102A99
:1009F0002206D8A02306F0D723502210D8B40FD057
:100A00000FC0D9FF10C0DAFF200EDF6E0F4A102A88
:100A10002206D8A0230623502210D8A4F1D721C043
:100A200015F0030E1516D8B408D00FC0D9FF10C0AA
:100A3000DAFF2D0EDF6E0F4A102A24C01BF029D0DA
:100A40001B50020D010EF324F66E080EF420F76E13
:100A50000900F5CF03F00A00F5CF04F01CC001F047
:100A60001DC002F038EC06F001C009F002C00AF027
:100A7000000E0C6E0A0E0B6E63EC06F00950300F80
:100A8000246E0FC0D9FF10C0DAFF24C0DFFF0F4A69
:100A9000102A1B061B28D8A4D3D711C0F6FF12C0FA
:100AA000F7FF114A122A0800F5CF24F02466B6D6C3
:100AB0000FC0D9FF10C0DAFF000EDF6E1200C18038
:100AC000C182C184C186C2900F0EC16EB484B4824B
:100AD000B480000E936E000E346E000E336E860EE0
:100AE0002C6E9F0E2B6E030E026EE80E016E17EC3D
:100AF00007F0280EB8EC05F0E3EC06F00009D8A4E6
:100B0000FBD7060EA6EC06F00C0EA6EC06F0410E86
:100B10002A6EEE0EE82EFED72A2EFCD700D0334ADE
:100B2000342A050E0BEC06F0000E106E2D0E0F6E23
:100B3000080E126E0B0E116E33C013F034C014F099
:100B400009EC04F0000E036E2D0E026E00EC07F0AF
:100B5000030E026EE80E016E17EC07F03328D8B4CE
:100B60003428D8A4DCD7000E346E000E336ED7D7ED
:100B7000E8CF05F0F00E8116F00E9316939C939A31
:100B800093988A9C8A9A8A986FEC07F0300EA6ECAC
:100B900006F0050E55EC07F0300EA6EC06F0010E3F
:100BA00055EC07F0320EA6EC06F0E3EC06F0000977
:100BB000D8A4FBD7E3EC06F00009D8A4FBD7055076
:100BC000A6EC06F0E3EC06F00009D8A4FBD7080E6B
:100BD000A6EC06F0E3EC06F00009D8A4FBD70F0E54
:100BE000A6EC06F0E3EC06F00009D8A4FBD7010E52
:100BF000A6EC06F0E3EC06F00009D8A4FBD7040E3F
:100C0000A6EC06F0E3EC06F00009D8A4FBD7800EB2
:100C10000BEC06F01200E8CF04F0F00E9316F00E85
:100C200081160450016E026A800E0112000E02123B
:100C3000040E036E023402320132032EFBD7015040
:100C40000F0B81128A9C8A9A42EC07F08A8842EC48
:100C500007F08A98F00E811604500F0B811242ECB7
:100C600007F08A8842EC07F08A980F0E9312120060
:100C7000000E076E000E066E04500310D8B41ED08E
:100C8000056E010E086E055004D0D8900336043668
:100C9000082A04AEFAD7D890063607360350015C0E
:100CA00004500258D8A005D00350015E0450025AE7
:100CB0000680D89004320332082EEDD706C001F02A
:100CC00007C002F012000C500B10D8B41AD00D6EF1
:100CD000010E0E6E0D5004D0D8900B360C360E2A35
:100CE0000CAEFAD70B50095C0C500A58D8A004D0AF
:100CF0000B50095E0C500A5AD8900C320B320E2E53
:100D0000F1D709C009F00AC00AF01200E8CF01F0DB
:100D1000F00E9316F00E811601380F0B0F0B811297
:100D20008A8A8A9C42EC07F08A8842EC07F08A980B
:100D3000F00E811601500F0B811242EC07F08A88E9
:100D400042EC07F08A980F0E93121200E8CF01F0E0
:100D5000F00E9316F00E811601380F0B0F0B811257
:100D60008A9C8A9A42EC07F08A8842EC07F08A98BB
:100D7000F00E811601500F0B811242EC07F08A88A9
:100D800042EC07F08A980F0E9312120001500302F2
:100D9000F3CF05F0F4CF06F001500402F3CFF4FFD7
:100DA000F36AF3500526F450062202500302F3CFF3
:100DB000F4FFF36AF3500526F450062205C001F053
:100DC00006C002F012008A8C8A9A42EC07F08A88E8
:100DD00042EC07F081A60AD08A9842EC07F08A8894
:100DE00042EC07F08A988A9C010E09D08A9842EC5E
:100DF00007F08A8842EC07F08A988A9C000E12005D
:100E00000ED0E3EC06F00009D8A4FBD702C0D9FF4E
:100E100003C0DAFFDF5086EC06F0024A032A02C064
:100E2000D9FF03C0DAFFDF50D8B41200EAD7000EB2
:100E3000056E000E046E0AD0070E036E7D0EE82EBE
:100E4000FED7032EFCD700F0044A052A0150045CAB
:100E500002500558D8B01200EFD7E8CF03F0016E6A
:100E6000000E026E01503A0E035CD8B007D02F0E70
:100E7000036404D0016E010E026E015002C001F045
:100E80000130120000F000F000F000F000F000F07F
:100E900000F000F000F000F000F000F000F000F0D2
:100EA00000F000F000F000F01200E8CF02F00D0EAC
:100EB000016EFC0EE82EFED7012EFCD7022EF7D7CE
:100EC0001200E8CF01F0FA0E00F0E82EFDD7012E57
:100ED000FAD71200000EF86E00015FEF05F06E0EFB
:060EE00061EC07F01200B6
:020000040020DA
:08000000FFFFFFFFFFFFFFFF00
:020000040030CA
:0E000000000C191EFF8181FF0FC00FE00F40A2
:00000001FF
