:040000000AEF00F013
:10000800FACF06F0FBCF07F0C6ED12F09DEF16F021
:1008000000010000000A00000064000000E803008E
:100810000010270000A086010040420F008096983B
:100820000000E1F50500CA9A3B00803FCDCC3DD7E2
:10083000233C12833AB7D138C62737388635C0D61D
:1008400033CC2B32708930E7DB2EE53C1E42A20D03
:1008500000803F00204100C842007A44401C4650BE
:10086000C34724744997184BBCBE4C6B6E4E03159E
:100870005079AD60F349715265616479200A0D00C9
:1008800054656D703A200025322E31660043000019
:100890000001000E000100017B6F00016A0E0001E3
:1008A00000017A6FF2EF09F0000100019751250A6B
:1008B000D8B409D066C0D9FF67C0DAFF000197C07D
:1008C000DFFFEEEF09F0000E000100018F6F000E58
:1008D00000018E6F000E000100018D6F000E0001FF
:1008E0008C6F000168C0F6FF000169C0F7FF0800C7
:1008F000F55053EC16F0D8A047D0000E00010001CF
:100900008F6F000E00018E6F8EC025F08FC026F015
:10091000000E286E0A0E276EBCEC15F025C08EF076
:1009200026C08FF0D00E00016D6FFF0E6E6F0001BC
:1009300068C0F6FF000169C0F7FF0800F55000012C
:100940006F6F706B00016D5100016F2700016E51D8
:100950000001702300016F51000100018E2700018A
:100960007051000100018F2300010001684B692BC9
:10097000000168C0F6FF000169C0F7FF0800F550EC
:1009800053EC16F0D8B0C0D7000168C0F6FF0001E4
:1009900069C0F7FF0800F5502E0AD8A43ED0000128
:1009A00000018D8D00010001684B692B000E0001D4
:1009B0000001966F000E0001956F22D095C025F0C2
:1009C00096C026F0000E286E0A0E276EBCEC15F0BD
:1009D000000168C0F6FF000169C0F7FF0800F5508C
:1009E0002526000E2622D00E252400010001956F39
:1009F000FF0E26200001966F00010001684B692B55
:100A0000000168C0F6FF000169C0F7FF0800F5505B
:100A100053EC16F0D8A010D0D1D7000E0001000181
:100A2000966F000E0001956F000100018D8904D0C2
:100A3000000100018D8519D0000168C0F6FF00019A
:100A400069C0F7FF00010001684B692B0800000135
:100A5000F5CF97F000019751000AD8B404EF0AF0DF
:100A6000660AD8B4E5D7F2EF09F0070E00010001DD
:100A70008D15D8B4C8D3000100018DA907D0000E90
:100A800000010001966F060E0001956F7AC0D9FF34
:100A90007BC0DAFF0001DECF92F00001DECF93F0E1
:100AA0000001DDCF94F0030E000100017A27000E53
:100AB00000017B23000100019451800A800F07E1AF
:100AC000000E0001935D03E1000E0001925DD8B0BD
:100AD00012D092C015F093C016F094C017F068ECD5
:100AE00016F015C092F016C093F017C094F0030EE4
:100AF000000100018C13000E00010001916F000E37
:100B00000001906F7F0E0001000194150001931108
:100B100000019211D8B49DD0820E00016D6FFF0EBE
:100B20006E6F000192C06FF0000193C070F0000181
:100B300094C071F0000195C072F0100E06D0000153
:100B4000D8907233713370336F33E82EF8D70001C9
:100B50006F5100016D2500010001906F000100013F
:100B6000000E6E21916F000100019007D8A091073F
:100B700090C025F091C026F0000E286E030E276E5F
:100B8000BCEC15F025C090F026C091F090C01CF090
:100B900091C01DF0000E1F6E0A0E1E6E79EC11F052
:100BA0001CC090F01DC091F0000100019151800A1D
:100BB000F36E800EF35C000ED8B4905DD8B005D013
:100BC000000100019007D8A0910700010001905199
:100BD00000080BEC0AF03AC084F03BC085F03CC042
:100BE00086F00001000E3B6E0001840E3A6E92C04A
:100BF0003CF093C03DF094C03EF080EC15F084C012
:100C000015F085C016F086C017F0000E186E800E25
:100C1000196E3F0E1A6E14EC13F0D8B006D0000116
:100C200000019007D8A0910714D084C015F085C0AA
:100C300016F086C017F0000E186E200E196E410EC9
:100C40001A6E14EC13F0D8A004D000010001904BF0
:100C5000912B000100019651800AF36E800EF35C27
:100C60000D0ED8B4955DD8B013D00001000E456EBE
:100C70000001920E446E000100019551F3EC0BF05F
:100C80003AC046F03BC047F03CC048F09EEC15F03F
:100C9000000100019151800AF36E800EF35C0A0E90
:100CA000D8B4905DD8B02BD07F0E00010001941510
:100CB0000001931100019211D8B471D092C041F09B
:100CC00093C042F094C043F07EEC0FF041C06DF051
:100CD00042C06EF043C06FF044C070F0000170512C
:100CE0006D116E116F11D8A45AD0000100019151FD
:100CF000800A800F020ED8B4905DD8A050D084C076
:100D000015F085C016F086C017F0700E186E890EAB
:100D1000196E400E1A6E14EC13F0D8B003D0000117
:100D2000F70E02D00001F80E00019027FF0E00011F
:100D300091230001000190510BEC0AF03AC084F0BD
:100D40003BC085F03CC086F092C015F093C016F011
:100D500094C017F084C018F085C019F086C01AF04E
:100D600014EC10F015C076F016C077F017C078F0CC
:100D700018C079F076C087F077C088F078C089F025
:100D800079C08AF0000E00010001926F000E000190
:100D90000001936F000E00010001946F2FD092C0EC
:100DA00041F093C042F094C043F07EEC0FF041C09C
:100DB00087F042C088F043C089F044C08AF0000147
:100DC000000E306E0001920E2F6E87C01DF088C09D
:100DD0001EF089C01FF08AC020F009EC14F01DC07D
:100DE00031F01EC032F01FC033F062EC15F0000E7F
:100DF00000010001916F000E0001906F00016D6F06
:100E0000010E00010001976F00016D51000100010A
:100E100097510A0AD8B421D0000100019751040D5E
:100E2000010EF324F66E080EF420F76E0900F5505B
:100E300000010001875D0900F55000018859090093
:100E4000F550000189590900F55000018A59D8A0D0
:100E500004D000010001972BD9D7000197C06DF095
:100E600000016E6B6DBF6E0700010001955100011E
:100E70006D2700010001965100016E230001000161
:100E8000905100016D2700010001915100016E2376
:100E900000016D51000100018E5F00016E510001E3
:100EA00000018F5B0001000196519511D8B405D067
:100EB000000100018E07D8A08F07030E000100017A
:100EC0008C1500016D6F000E000100018D150001F1
:100ED0006E6F00016E516D11D8B410D00AD066C08B
:100EE000D9FF67C0DAFF200EDF6E00010001664BFC
:100EF000672B000100018E07D8A08F0700010001B9
:100F00008F51800AF36E800EF35C010ED8B48E5DB3
:100F1000D8B0E5D7030E000100018C1500016D6FFC
:100F2000000E000100018D1500016E6F00016E5171
:100F30006D11D8B455D066C0D9FF67C0DAFF2D0E49
:100F40004AD087C015F088C016F089C017F08AC053
:100F500018F0000100019751040D010EF324F66E04
:100F6000080EF420F76E0900F5CF19F00900F5CF4F
:100F70001AF00900F5CF1BF00A00F5CF1CF05CEC6D
:100F800013F015C07CF016C07DF017C07EF018C0BD
:100F90007FF07CC015F07DC016F07EC017F07FC0DA
:100FA00018F00A0E196E000E1A6E000E1B6E000E5F
:100FB0001C6E9FEC13F015C07CF016C07DF017C0BE
:100FC0007EF018C07FF0000100017C51300F66C038
:100FD000D9FF67C0DAFFDF6E00010001664B672BA7
:100FE00000010001970700019729D8B410D0A9D7B4
:100FF00066C0D9FF67C0DAFF300EDF6E0001000166
:10100000664B672B000100019007D8A091070001F3
:1010100000019151800AF36E800EF35C010ED8B48A
:10102000905DD8B0E5D7000100019651800A800F8D
:10103000090ED8B4955DD8A009D000016D6F080ED7
:1010400000010001976F00016D5102D095C097F02B
:1010500000010001975100010001955F000E0001A1
:1010600097BFFF0E00010001965B00010001975140
:10107000D8B40AD066C0D9FF67C0DAFF2E0EDF6E83
:1010800000010001664B672B0001000197510BEC3A
:101090000AF03AC073F03BC074F03CC075F092C0E7
:1010A0002EF093C02FF094C030F073C02BF074C0BA
:1010B0002CF075C02DF096EC10F02BC041F02CC038
:1010C00042F02DC043F07EEC0FF041C087F042C0EB
:1010D00088F043C089F044C08AF077D087C015F00B
:1010E00088C016F089C017F08AC018F0000100010E
:1010F0009751040D010EF324F66E080EF420F76EDE
:101100000900F5CF19F00900F5CF1AF00900F5CF65
:101110001BF00A00F5CF1CF05CEC13F015C080F05A
:1011200016C081F017C082F018C083F080C015F09F
:1011300081C016F082C017F083C018F00A0E196E35
:10114000000E1A6E000E1B6E000E1C6E9FEC13F04C
:1011500015C080F016C081F017C082F018C083F06F
:10116000000100018051300F66C0D9FF67C0DAFF6F
:10117000DF6E00010001664B672B87C015F088C049
:1011800016F089C017F08AC018F0000100019751CD
:10119000040D010EF324F66E080EF420F76E09001C
:1011A000F5CF19F00900F5CF1AF00900F5CF1BF0C3
:1011B0000A00F5CF1CF09FEC13F015C087F016C0A5
:1011C00088F017C089F018C08AF000010001970765
:1011D00000019729D8B410D081D766C0D9FF67C065
:1011E000DAFF300EDF6E00010001664B672B000155
:1011F00000019507D8A096070001000196519511AE
:10120000D8B4F0D0EAD70001000196519511D8A4C6
:101210000CD0000100018A51871188118911D8A4CE
:1012200004D000010001954B962B800E00010001B7
:1012300097BF7F0E6D6F0001000195510001000105
:10124000975D000100019651800A00016D59D8B0E8
:1012500003D095C097F020D0000100019651800A7C
:1012600000016D6F00010001975100010001955DC3
:10127000800E0001000197BF7F0E00016D59D8B0AC
:101280000BD000010001975100010001956F000192
:10129000966B000195BF9607000100018F518E11DA
:1012A000D8B416D0030E000100018C1500016D6F3B
:1012B000000E000100018D1500016E6F00016E51DE
:1012C0006D11D8B405D0000100018E07D8A08F079A
:1012D000000100018DAD28D0000100019651800A67
:1012E00000016D6F000100018E5100010001955D4C
:1012F000000100018F51800A00016D59D8B00DD056
:10130000000100019551000100018E5F0001000104
:101310009651000100018F5B07D0000E0001000113
:101320008F6F000E00018E6F800E0001000197BFCD
:101330007F0E6D6F000100018E5100010001975D6D
:10134000000100018F51800A00016D59D8B00ED004
:10135000000100019751000100018E5F000E0001A5
:1013600097BFFF0E000100018F5B07D0000E000148
:1013700000018F6F000E00018E6F000100018F5180
:101380008E11D8B414D066C0D9FF67C0DAFF200E22
:10139000DF6E00010001664B672B000100018E0724
:1013A000D8A08F0700018F518E11D8A4ECD7030E5F
:1013B000000100018C1500016D6F000E000100019D
:1013C0008D1500016E6F00016E516D11D8B40AD0F9
:1013D00066C0D9FF67C0DAFF2D0EDF6E0001000185
:1013E000664B672B000168C0F6FF000169C0F7FF7C
:1013F00000010001684B692B08000001F5CF97F050
:101400000001976754EF04F066C0D9FF67C0DAFFA8
:10141000000EDF6E1200E8CF40F040AEEAD0406C24
:101420004050800A120FD8A08BD0000E286E030EF9
:10143000276E000E1F6E0A0E1E6E000E186E640ED2
:10144000176E4050156E166A15BE160678EC12F02F
:1014500015C01CF016C01DF079EC11F0090E1C240B
:10146000256E000E1D20266EBCEC15F0290E2524DD
:10147000F66E080E2620F76E0900F5CF2EF0090053
:10148000F5CF2FF00A00F5CF30F0000E286E030ED6
:10149000276E000E1F6E640E1E6E40501C6E1D6A7D
:1014A0001CBE1D0679EC11F0120E1C24256E000ED8
:1014B0001D20266EBCEC15F0290E2524F66E080EB4
:1014C0002620F76E0900F5CF2BF00900F5CF2CF0A0
:1014D0000A00F5CF2DF096EC10F02BC03DF02CC09B
:1014E0003EF02DC03FF03DC02BF03EC02CF03FC081
:1014F0002DF0000E286E030E276E000E186E0A0ED9
:10150000176E4050156E166A15BE160678EC12F06E
:1015100015C025F016C026F0BCEC15F0290E2524C8
:10152000F66E080E2620F76E0900F5CF2EF00900A2
:10153000F5CF2FF00A00F5CF30F096EC10F03AD14D
:101540004050800A750FD8A04DD0000E286E030EB3
:10155000276E000E1F6E0A0E1E6E40501C6E1D6A16
:101560001CBE1D0679EC11F0090E1C24256E000E20
:101570001D20266EBCEC15F0290E2524F66E080EF3
:101580002620F76E0900F5CF2BF00900F5CF2CF0DF
:101590000A00F5CF2DF0000E286E030E276E000E08
:1015A000186E0A0E176E4050156E166A15BE160696
:1015B00078EC12F015C025F016C026F0BCEC15F042
:1015C000290E2524F66E080E2620F76E0900F5CFA9
:1015D0002EF00900F5CF2FF00A00F5CF30F096EC91
:1015E00010F0E8D04050030D290EF324F66E080EDB
:1015F000EED04050800A120FD8A08BD0000E286E7B
:10160000030E276E000E1F6E0A0E1E6E000E186E61
:10161000640E176E4050156E166A15BE160678ECED
:1016200012F015C01CF016C01DF079EC11F0090E77
:101630001C24256E000E1D20266EBCEC15F0500EED
:101640002524F66E080E2620F76E0900F5CF2EF041
:101650000900F5CF2FF00A00F5CF30F0000E286E0C
:10166000030E276E000E1F6E640E1E6E40501C6E21
:101670001D6A1CBE1D0679EC11F0120E1C24256E8D
:10168000000E1D20266EBCEC15F0500E2524F66EC3
:10169000080E2620F76E0900F5CF2BF00900F5CFD4
:1016A0002CF00A00F5CF2DF096EC10F02BC03DF099
:1016B0002CC03EF02DC03FF03DC02BF03EC02CF0C2
:1016C0003FC02DF0000E286E030E276E000E186E20
:1016D0000A0E176E4050156E166A15BE160678EC87
:1016E00012F015C025F016C026F0BCEC15F0500E17
:1016F0002524F66E080E2620F76E0900F5CF2EF091
:101700000900F5CF2FF00A00F5CF30F096EC10F07D
:1017100051D04050800A750FD8A053D0000E286ECB
:10172000030E276E000E1F6E0A0E1E6E40501C6EBA
:101730001D6A1CBE1D0679EC11F0090E1C24256ED5
:10174000000E1D20266EBCEC15F0500E2524F66E02
:10175000080E2620F76E0900F5CF2BF00900F5CF13
:101760002CF00A00F5CF2DF0000E286E030E276E28
:10177000000E186E0A0E176E4050156E166A15BED2
:10178000160678EC12F015C025F016C026F0BCEC59
:1017900015F0500E2524F66E080E2620F76E09006F
:1017A000F5CF2EF00900F5CF2FF00A00F5CF30F07D
:1017B00096EC10F02BC03AF02CC03BF02DC03CF062
:1017C00011D04050030D500EF324F66E080EF42095
:1017D000F76E0900F5CF3AF00900F5CF3BF00A00AB
:1017E000F5CF3CF01200E8CF43F06D0E436499D082
:1017F000000E286E030E276E000E1F6E0A0E1E6E60
:10180000000E186E640E176E43C015F0166A78EC61
:1018100012F015C01CF016C01DF079EC11F0090E85
:101820001C24256E000E1D20266EBCEC15F0290E22
:101830002524F66E080E2620F76E0900F5CF2EF04F
:101840000900F5CF2FF00A00F5CF30F0000E286E1A
:10185000030E276E000E1F6E640E1E6E43C01CF03A
:101860001D6A79EC11F0120E1C24256E000E1D204D
:10187000266EBCEC15F0290E2524F66E080E2620E7
:10188000F76E0900F5CF2BF00900F5CF2CF00A0018
:10189000F5CF2DF096EC10F02BC040F02CC041F0AD
:1018A0002DC042F0000E286E030E276E000E186E3B
:1018B0000A0E176E43C015F0166A78EC12F015C0C8
:1018C00025F016C026F0BCEC15F0290E2524F66E86
:1018D000080E2620F76E0900F5CF2EF00900F5CF8F
:1018E0002FF00A00F5CF30F040C02BF041C02CF0B3
:1018F00042C02DF096EC10F02BC03DF02CC03EF015
:101900002DC03FF03DC02BF03EC02CF03FC02DF06D
:10191000000E2E6E000E2F6E3F0E306E96EC10F005
:1019200079D00A0E43645DD0000E286E030E276E38
:10193000000E186E0A0E176E43C015F0166A78EC8A
:1019400012F015C025F016C026F0BCEC15F0290EDB
:101950002524F66E080E2620F76E0900F5CF2EF02E
:101960000900F5CF2FF00A00F5CF30F0000E286EF9
:10197000030E276E000E1F6E0A0E1E6E43C01CF073
:101980001D6A79EC11F0090E1C24256E000E1D2035
:10199000266EBCEC15F0290E2524F66E080E2620C6
:1019A000F76E0900F5CF2BF00900F5CF2CF00A00F7
:1019B000F5CF2DF096EC10F02BC040F02CC041F08C
:1019C0002DC042F040C02BF041C02CF042C02DF0A1
:1019D000000E2E6E000E2F6E3F0E306E96EC10F045
:1019E00019D04350030D290EF324F66E080EF4208F
:1019F000F76E0900F5CF2BF00900F5CF2CF00A00A7
:101A0000F5CF2DF0000E2E6E000E2F6E3F0E306EB5
:101A100096EC10F02BC03AF02CC03BF02DC03CF0FF
:101A2000120011EC16F0000E00010001A36F000E71
:101A300000010001A46F000E00010001A56F000E5F
:101A400000010001A76F000E0001A66F20EEA8F0B4
:101A500010EE9DF0060EDECFE6FFE82EFCD700016B
:101A6000000E00010001AF6F00019D0E000100019A
:101A7000AE6F030E166EE80E156E3DEC16F0000EFE
:101A8000166E810E156E7C0ED4EC13F0050ED3ECA1
:101A900016F0080E176E770E166E6BEC14F0000140
:101AA000986F040E156E000198510001996F0E0E8B
:101AB000166E00019951ED0E3BEC14F0050ED3ECBF
:101AC00016F0280E25EC12F0D9EC15F00009D8A478
:101AD000FBD7060E42EC15F00C0E42EC15F0410E51
:101AE0000001986FEE0EE82EFED7982FFCD700D09D
:101AF000000EF5EC14F0FA0E00F0E82EFDD7080EFB
:101B0000176E800E166E99EC14F0FA0E00F0E82EA7
:101B1000FDD70D0EF5EC14F0080E176E8D0E166E37
:101B200099EC14F0EBEC16F0DCEC16F00009D8A4FC
:101B3000FBD7E2EC16F015C0A6F016C0A7F0000E19
:101B40003D6E800E3E6E440E3F6E000E2E6EA00E59
:101B50002F6E400E306EA6C01DF0A7C01EF027EC01
:101B600016F01DC02BF01EC02CF01FC02DF096ECFF
:101B700010F02BC03AF02CC03BF02DC03CF00CEC28
:101B800011F03AC09AF03BC09BF03CC09CF09AC068
:101B90002BF09BC02CF09CC02DF0000E2E6EC80EBA
:101BA0002F6E420E306E96EC10F02BC0A3F02CC0BE
:101BB000A4F02DC0A5F0070EF5EC14F00001000113
:101BC000AFC067F000010001AEC066F0080E000172
:101BD0000001696F870E00010001686FA3C06AF001
:101BE000A4C06BF0A5C06CF048EC04F00001AFC0DD
:101BF00017F00001AEC016F099EC14F0010E166E4D
:101C00002C0E156E3DEC16F08DD71FC023F0246A04
:101C1000256A1E34233601E324802350286E22C017
:101C200023F0246A256A2134233601E324802350DB
:101C3000276E2850D8B40CD02750285CD8B00FD0CD
:101C4000285000082724236E190E235CD8A007D043
:101C500020C01DF021C01EF022C01FF0B1D02750BF
:101C6000D8B40CD02850275CD8B00FD0275000082B
:101C70002824236E190E235CD8A007D01DC01DF0A8
:101C80001EC01EF01FC01FF09BD0236E060E266ED6
:101C900023501FBE268E22BE268C1E8EFF0E1D16C2
:101CA000FF0E1E16000E1F16218EFF0E2016FF0EB1
:101CB0002116000E22162750285CD8B01AD0D890D2
:101CC000203621362236270627502818D8B40DD0C2
:101CD000260626C023F0070E2316D8B406D0EFD769
:101CE000D8901F321E321D32282A27502862F8D77A
:101CF0001DD02850275CD8B019D0D8901D361E367C
:101D00001F36280627502818D8B40DD0260626C01E
:101D100023F0070E2316D8B406D0EFD7D89022327E
:101D200021322032272A27502862F8D726AE0CD03D
:101D3000FF0E1D1AFF0E1E1AFF0E1F1A010E1D2682
:101D4000000E1E22000E1F2226AC0CD0FF0E201A01
:101D5000FF0E211AFF0E221A010E2026000E21224C
:101D6000000E2222236E000E266E23501D502026C8
:101D70001E5021221F50222222AE10D0FF0E201A08
:101D8000FF0E211AFF0E221A010E2026000E21221C
:101D9000000E2222236E010E266E235020C015F065
:101DA00021C016F022C017F028C018F026C019F084
:101DB000D1EC11F015C01DF016C01EF017C01FF0B9
:101DC000120015C01BF016C01CF017C01DF018C083
:101DD0001EF0180E05D0D8901E321D321C321B3258
:101DE000E82EF9D71B50246E246601D06DD018C0A0
:101DF0001BF019C01CF01AC01DF01BC01EF0180EFD
:101E000005D0D8901E321D321C321B32E82EF9D775
:101E10001B50236E236601D057D0178EFF0E151668
:101E2000FF0E1616FF0E1716000E18161A8EFF0E4E
:101E30001816FF0E1916FF0E1A16000E1B16000EAE
:101E40001F6E000E206E000E216E000E226E7F0EA1
:101E5000245E2350A00F245E1B6E200E236E1B50A9
:101E6000D8901F362036213622361850155C19506E
:101E700016581A5017581B501858D8A009D0185087
:101E8000155E1950165A1A50175A1B50185A1F80AF
:101E9000D8901536163617361836232EE1D724AECD
:101EA00010D02450800A1B6EE10E800A1B5CD8A063
:101EB0000BD0D8902232213220321F32243EF9D763
:101EC00014D01F0E24640FD0000E156E000E166E77
:101ED000000E176E000E186E10D0D8901F362036E8
:101EE0002136223624062466F8D71FC015F020C0FC
:101EF00016F021C017F022C018F0120043C045F0C0
:101F0000466A476A4234453601E34680455000013F
:101F10000001656F0001656701D04ED0170E456E58
:101F200041C046F042C047F043C048F04528496EE2
:101F300004D0D890483247324632492EFAD746501C
:101F400000010001606F428EFF0E4116FF0E421627
:101F5000000E4316415000010001616F4250000124
:101F6000626F43500001636F0001646B8E0E0001CD
:101F70000001655F0001000165AF19D0000100019B
:101F80006551800A456EF10E800A455CD8A014D0D8
:101F90000001D89000016433000163330001623313
:101FA0000001613300010001653FF2D71FD0170E19
:101FB00000010001656516D0000E416E000E426EF4
:101FC000000E436E000E446E2ED00001D89000012A
:101FD0006137000162370001633700016437000197
:101FE00000016507000100016567EFD700010001EE
:101FF0006051D8B410D000010001641F0001631FBC
:102000000001621F0001616D000E000162230001EA
:1020100063230001642361C041F062C042F063C0E9
:1020200043F064C044F0120017C01BF01C6A1D6A24
:1020300016341B3601E31C801B50236E236601D02F
:102040005BD01AC01BF01C6A1D6A19341B3601E3F1
:102050001C801B50226E226601D04ED0168EFF0EC1
:102060001516FF0E1616000E1716198EFF0E1816EF
:10207000FF0E1916000E1A16000E1E6E000E1F6EB1
:10208000000E206E000E216E7F0E235E2250980FF0
:10209000235E1B6E180E226E1B50D8901E361F3604
:1020A000203621361850155C195016581A501758FA
:1020B000D8A007D01850155E1950165A1A50175A42
:1020C0001E80D890153616361736222EE6D723AE48
:1020D00010D02350800A1B6EE90E800A1B5CD8A02A
:1020E0000BD0D890213220321F321E32233EF9D736
:1020F00014D0170E23640FD0000E156E000E166E4E
:10210000000E176E000E186E10D0D8901E361F36B7
:102110002036213623062366F8D71EC015F01FC0CF
:1021200016F020C017F021C018F012002DC031F0B9
:10213000326A336A2C34313601E332803150346EE6
:10214000346601D00CD030C031F0326A336A2F349B
:10215000313601E332803150396E396607D0000ED6
:102160002B6E000E2C6E000E2D6E55D039507B0F4D
:1021700034262DC039F03050391A800E39162C8E85
:102180002F8EFF0E2E16FF0E2F16000E3016000E8D
:10219000356E000E366E000E376E316E070E386EDD
:1021A00031502BA006D02E5035262F5036223050DD
:1021B0003722D8902D322C322B32D8902E362F3613
:1021C0003036382EEED7316E090E386E31502BA0D6
:1021D00006D02E5035262F50362230503722D89038
:1021E0002D322C322B32D890373236323532382ECF
:1021F000EED735C015F036C016F037C017F034C032
:1022000018F039C019F0D1EC11F015C02BF016C040
:102210002CF017C02DF012003CC040F0416A426A19
:102220003B34403601E341804050476E476601D061
:102230000CD03FC040F0416A426A3E34403601E370
:1022400041804050486E486607D0000E3A6E000E3E
:102250003B6E000E3C6E4CD0000E446E000E456E80
:10226000000E466E4850890F475E3CC048F03F5014
:10227000481A800E48163B8EFF0E3A16FF0E3B168C
:10228000000E3C163E8EFF0E3D16FF0E3E16000E53
:102290003F16406E180E436E4050D8904436453677
:1022A00046363D503A5C3E503B583F503C58D8A0D3
:1022B00007D03D503A5E3E503B5A3F503C5A448016
:1022C000D8903A363B363C36432EE7D744C015F01B
:1022D00045C016F046C017F047C018F048C019F0C6
:1022E000D1EC11F015C03AF016C03BF017C03CF02D
:1022F0001200206E000E226E20501F50800AF36ED6
:10230000800EF35C000ED8B41E5CD8B008D01E6CF2
:102310001F1ED8B01F2A206E010E226E20501D50A5
:10232000800AF36E800EF35C000ED8B41C5CD8B04B
:1023300006D01C6C1D1ED8B01D2A010E221A000EDC
:10234000246E000E236E1F501E10D8B41ED0206EB7
:10235000010E216E205004D0D8901E361F36212A3F
:102360001FAEFAD7D890233624361E501C5C1F505F
:102370001D58D8A005D01E501C5E1F501D5A23802A
:10238000D8901F321E32212EEDD72250D8B404D05F
:10239000236C241ED8B0242A23C01CF024C01DF0B6
:1023A00012001850D8B405D0155016101710D8A424
:1023B0000CD0000E156E000E166E000E176E44D077
:1023C000182AD890173216321532000E15141A6ECC
:1023D000000E16141B6EFE0E17141C6E1A501B10E6
:1023E0001C10D8B40CD0ECD7182A010E1526000EFC
:1023F0001622000E1722D890173216321532000E10
:1024000015141A6E000E16141B6EFF0E17141C6E98
:102410001A501B101C10D8B406D0E6D71806D89056
:1024200015361636173616AEF9D718A0169ED89060
:102430001832185017121950D8A4178E15C015F05D
:1024400016C016F017C017F01200E8CF19F0F00E02
:102450008116F00E9316939C939A93988A9C8A9A6D
:102460008A98E7EC16F0300E42EC15F0050EAAEC57
:1024700016F0300E42EC15F0010EAAEC16F0320EFA
:1024800042EC15F0D9EC15F00009D8A4FBD7D9EC33
:1024900015F00009D8A4FBD7195042EC15F0D9EC7F
:1024A00015F00009D8A4FBD7080E42EC15F0D9ECC2
:1024B00015F00009D8A4FBD70F0E42EC15F0D9ECAB
:1024C00015F00009D8A4FBD7010E42EC15F0D9ECA9
:1024D00015F00009D8A4FBD7040E42EC15F0D9EC96
:1024E00015F00009D8A4FBD7800EF5EC14F012000B
:1024F000196E000E1B6E19501650800AF36E800E76
:10250000F35C000ED8B4155CD8B008D0156C161E5C
:10251000D8B0162A196E010E1B6E19501850800A79
:10252000F36E800EF35C000ED8B4175CD8B004D004
:10253000176C181ED8B0182A18501710D8B41AD013
:10254000196E010E1A6E195004D0D890173618362D
:102550001A2A18AEFAD71750155C18501658D8A07A
:1025600004D01750155E1850165AD89018321732EA
:102570001A2EF1D71B50D8B404D0156C161ED8B043
:10258000162A15C015F016C016F012000600E9CF85
:1025900008F0EACF09F0E1CF0AF0E2CF0BF0D9CF93
:1025A0000CF0DACF0DF0F3CF0EF0F4CF0FF0F6CF42
:1025B00010F0F7CF11F0F8CF12F0F5CF13F09EAA7C
:1025C00016D08EEC16F0146EFA0E00F0E82EFDD741
:1025D0000001AFC003F00001AEC002F0C7EC14F080
:1025E000080E036E7D0E026EC7EC14F09E9A13C0A7
:1025F000F5FF12C0F8FF11C0F7FF10C0F6FF0FC0C3
:10260000F4FF0EC0F3FF0DC0DAFF0CC0D9FF0BC002
:10261000E2FF0AC0E1FF09C0EAFF08C0E9FF07C006
:10262000FBFF06C0FAFF110017AE16D015C01BF055
:1026300016C01CF017C01DF01B1E1C1E1D1E1B2AE1
:10264000000E1C221D22000E1B24156E000E1C20E5
:10265000166E800E1D20176E1AAE16D018C01BF015
:1026600019C01CF01AC01DF01B1E1C1E1D1E1B2AAB
:10267000000E1C221D22000E1B24186E000E1C20B2
:10268000196E800E1D201A6E000E151A000E161AF5
:10269000800E171A000E181A000E191A800E1A1A38
:1026A0001850155C195016581A501758D8B002D047
:1026B000D89001D0D8801200000E1E6E000E1F6E42
:1026C000000E206E000E216E1C5019101A101B10E7
:1026D000D8B42CD01D6E010E226E1D5006D0D8909D
:1026E00019361A361B361C36222A1CAEF8D7D8905B
:1026F0001E361F36203621361950155C1A501658D2
:102700001B5017581C501858D8A009D01950155EE6
:102710001A50165A1B50175A1C50185A1E80D8901F
:102720001C321B321A321932222EE1D71EC015F08C
:102730001FC016F020C017F021C018F012001C5066
:1027400019101A101B10D8B426D01D6E010E1E6E63
:102750001D5006D0D89019361A361B361C361E2A44
:102760001CAEF8D71950155C1A5016581B50175844
:102770001C501858D8A008D01950155E1A50165A77
:102780001B50175A1C50185AD8901C321B321A3240
:1027900019321E2EE7D715C015F016C016F017C057
:1027A00017F018C018F01200E8CF1AF0000EAC6E47
:1027B000000EAB6E1AB0AC881AA202D0AC8CAB8CF7
:1027C0001AB4AC8E1AA602D0AB8801D0AB8A1AB864
:1027D000AC849E981ABAAB861AAC02D09D8A01D0FE
:1027E0009D9A9E9A1AAE02D09D8801D09D9815C0E0
:1027F000AFFF16C017F017C018F0196A1850B06E66
:10280000AC8AAB8E949C948EACB8ACBE01D0948C48
:102810001200216E8E0E256E215006D0D8902032E7
:102820001F321E321D32252A000E1D14216E000E8D
:102830001E14226E000E1F14236EFF0E2014246E31
:102840002450211022102310D8A4E8D71DC015F061
:102850001EC016F01FC017F025C018F0216E000E24
:10286000196E2150D1EC11F015C01DF016C01EF0EC
:1028700017C01FF01200E8CF19F0000EC26E000E54
:10288000C06ED89015303C0BC26E15C017F0173AC9
:10289000F00E1716300E171616500F0B1710C16ECC
:1028A00019C017F0D8901736D8901736380E17166B
:1028B00019C018F0183A0F0E1816070E18161950EE
:1028C000800B18101710C06E15AE03D09E9C9D8C07
:1028D000F28CC2801200ACA2FED716C0F6FF17C061
:1028E000F7FFF86A070EF76403D00800F55005D02B
:1028F000F6CFE9FFF7CFEAFFEF50B6EC16F016502F
:10290000186E1750196E164A172A18C0F6FF19C00C
:10291000F7FFF86A070EF76403D00800F55005D0FA
:10292000F6CFE9FFF7CFEAFFEF500009D8B4120065
:10293000D2D719D0D9EC15F00009D8A4FBD716C00E
:10294000F6FF17C0F7FFF86A070EF76403D0080018
:10295000F55005D0F6CFE9FFF7CFEAFFEF5022ECB4
:1029600015F0164A172A16C0F6FF17C0F7FFF86AC7
:10297000070EF76403D00800F55005D0F6CFE9FF45
:10298000F7CFEAFFEF500009D8B41200D3D7ACA2BA
:10299000FED702C0F6FF03C0F7FFF86A070EF76420
:1029A00003D00800F55005D0F6CFE9FFF7CFEAFFD6
:1029B000EF50C0EC16F00250046E0350056E024A50
:1029C000032A04C0F6FF05C0F7FFF86A070EF76494
:1029D00003D00800F55005D0F6CFE9FFF7CFEAFFA6
:1029E000EF500009D8B41200D2D7E8CF18F0F00E9B
:1029F0009316F00E81161850156E166A800E151279
:102A0000000E1612040E176E163416321532172EDB
:102A1000FBD715500F0B81128A9C8A9A7BEC16F01B
:102A20008A887BEC16F08A98F00E811618500F0BEE
:102A300081127BEC16F08A887BEC16F08A980F0ED8
:102A400093121200E8CF15F0F00E9316F00E8116D7
:102A500015380F0B0F0B81128A8A8A9C7BEC16F0BB
:102A60008A887BEC16F08A98F00E811615500F0BB1
:102A700081127BEC16F08A887BEC16F08A980F0E98
:102A800093121200E8CF15F0F00E9316F00E811697
:102A900015380F0B0F0B81128A9C8A9A7BEC16F06B
:102AA0008A887BEC16F08A98F00E811615500F0B71
:102AB00081127BEC16F08A887BEC16F08A980F0E58
:102AC000931212002FC0D9FF30C0DAFFDECF29F0F9
:102AD000DECF2AF0DDCF2BF031C02CF032C02DF04C
:102AE00033C02EF0F6EC15F02FC0D9FF30C0DAFF5E
:102AF00029C0DEFF2AC0DEFF2BC0DDFFDD52120041
:102B00003AC0D9FF3BC0DAFFDECF2BF0DECF2CF08E
:102B1000DDCF2DF03CC02EF03DC02FF03EC030F098
:102B200096EC10F03AC0D9FF3BC0DAFF2BC0DEFFB5
:102B30002CC0DEFF2DC0DDFFDD52120044C0D9FFE6
:102B400045C0DAFFDECF1DF0DECF1EF0DDCF1FF077
:102B500046C020F047C021F048C022F005EC0EF03E
:102B600044C0D9FF45C0DAFF1DC0DEFF1EC0DEFF36
:102B70001FC0DDFFDD52120025502702F3CF29F0E0
:102B8000F4CF2AF025502802F3CFF4FFF36AF35074
:102B90002926F4502A2226502702F3CFF4FFF36AA5
:102BA000F3502926F4502A2229C025F02AC026F005
:102BB00012008A8C8A9A7BEC16F08A887BEC16F0DD
:102BC00081A60AD08A987BEC16F08A887BEC16F0F6
:102BD0008A988A9C010E09D08A987BEC16F08A8824
:102BE0007BEC16F08A988A9C000E1200000E2C1ABC
:102BF000000E2D1A800E2E1A29C01DF02AC01EF0BC
:102C00002BC01FF02CC020F02DC021F02EC022F0D0
:102C100005EC0EF01DC029F01EC02AF01FC02BF0DD
:102C20001200B484B482B480000E936E92809282BB
:102C30009284010EC26EC2800C0EC16E949C948E62
:102C4000AB8E9E9A9F9A9D8AF28CF28E12001DC0C6
:102C500015F01EC016F0176A206E8E0E186E2050EA
:102C6000216E000E196E2150D1EC11F015C01DF02F
:102C700016C01EF017C01FF01200000E196E000ED5
:102C8000186E0AD0070E176E7D0EE82EFED7172E8F
:102C9000FCD700F0184A192A1550185C165019581C
:102CA000D8B01200EFD7E8CF17F0156E000E166EF1
:102CB00015503A0E175CD8B007D02F0E176404D009
:102CC000156E010E166E155016C015F01530120057
:102CD0007F0E171416101510D8B406D0000E151A52
:102CE000000E161A800E171A15C015F016C016F031
:102CF00017C017F0120000F000F000F000F000F034
:102D000000F000F000F000F000F000F000F000F043
:102D100000F000F000F000F000F01200F20E4A1691
:102D2000ABAC03D04A90ABB04A80ABB44A84ABB2F0
:102D30004A86AECF01F0015012000001AD6BAC6BC2
:102D4000AB6BAA6BA96BA86B4A6A000EF86E000108
:102D500011EF0DF0E8CF16F00D0E156EFC0EE82EFB
:102D6000FED7152EFCD7162EF7D71200E8CF15F098
:102D7000ACAC03D0AC904AB2AC8015C0ADFF120031
:102D8000E8CF01F0ACAC03D0AC904AB2AC8001C04B
:102D9000ADFF1200E8CF15F0FA0E00F0E82EFDD7D7
:102DA000152EFAD71200E8CF15F0030EE82EFED745
:102DB00000F0152EFAD71200C2A202D0010E01D0E7
:102DC000000E1200C450166EC350156E12006E0E27
:0A2DD000CAEC16F01200C2821200D5
:020000040020DA
:08000000FFFFFFFFFFFFFFFF00
:020000040030CA
:0E000000000C191EFF8181FF0FC00FE00F40A2
:00000001FF
