:020000001028C6
:10000800FE00030EF1000408F2000A08F300831250
:1000180003137F08F4002A2A1128F801BE0183017E
:10002800E329903083120313980001303206330419
:10003800031D61282430831603139800F0308312BF
:100048000313B400FF30B500FF30B600FF30B7002F
:100058003108A3003008A2002F08A1002E08A00034
:100068000030A7003D30A6000930A5000030A400EC
:10007800BC20831203132008B40721080318210F9A
:1000880046284728B50722080318220F4C284D2870
:10009800B60723080318230AB7073708BD00360830
:1000A800BC003508BB003408BA000030A30000309B
:1000B800A2000030A1001030A328203083160313BB
:1000C8009800C03083120313B400FF30B500FF302E
:1000D800B600FF30B7003108A3003008A2002F088F
:1000E800A1002E08A0000030A7003D30A60009306E
:1000F800A5000030A400BC20831203132008B40715
:1001080021080318210F89288A28B507220803180F
:10011800220F8F289028B60723080318230AB70749
:100128003708BD003608BC003508BB003408BA00E3
:100138000030A3000030A2000030A1004030A00031
:100148003D08A7003C08A6003B08A5003A08A40003
:10015800BC20831203132108B901B9072008B8018C
:10016800B80738088316031399008C160C12080078
:1001780083120313A901A31FCE28A009A109A2096C
:10018800A309A00A0319A10A0319A20A0319A30AB9
:10019800A901A90AA71FDF28A409A509A609A70973
:1001A800A40A0319A50A0319A60A0319A70A013004
:1001B800F5007508A9060030AD000030AC0000302D
:1001C800AB000030AA0023082204210420040319EC
:1001D8003429A801A80AA31BFF280130F500031041
:1001E800A00DA10DA20DA30DF50BF3280130F5000C
:1001F8007508A807EF280130F5000310AA0DAB0D0C
:10020800AC0DAD0DF50B012923082702031D162996
:1002180022082602031D162921082502031D162976
:1002280020082402031C27292008A4022108031CF3
:10023800210FA5022208031C220FA6022308031C73
:10024800230FA7022A1401300310A30CA20CA10C3F
:10025800A00CFF3E031D28290130A802031DFF281A
:10026800290803194229AA09AB09AC09AD09AA0A48
:100278000319AB0A0319AC0A0319AD0A2D08A30028
:100288002C08A2002B08A1002A08A00008000130B1
:100298008A000408840A8207003445346E34203406
:1002A8004D3469346E34693463346F346D342034BA
:1002B80068346134623469346C3469347434653454
:1002C80020346E34653477346C3469346E34653474
:1002D800203463346F346E3420343C3463347434E3
:1002E80072346C342D3461343E34203461342E340D
:1002F80020340A340D3400344434693467346934A2
:10030800743465342C34203479346F3420346C34AC
:100318006534203476346F347934203461342034B1
:100328006434613472342034653463346F342E3469
:1003380020340A340D3400345534733461346E3447
:1003480064346F34203473346534723469346134FE
:100358006C3420344D3450346C346134623420347D
:1003680078346334383420340A340D34003483123A
:100378000313A4002408A0002008A5002508840071
:100388004B2100380319CD290130A0002008A5070A
:10039800C2292408A0008030A100A009A109A00A50
:1003A8000319A10A2508A2008030A300200822070B
:1003B800F50021080318210A2307F6000800023077
:1003C8008316031386008312031386010030B100DD
:1003D8000030B0002530AF008030AE000130B200F0
:1003E8000030B30015200B178B175030072201304F
:1003F800072230300722781CFF29831203133E0896
:100408003B227810FF2983120313A800A7012808AC
:10041800BB217508F700770883120313A600260886
:100428002702031808002708280784004B213B22CD
:10043800F930F7000000F70B1E2A222A00000130CD
:10044800F700770883120313A707132A1A08F00086
:100458007008BE0078148C127408FF0073088A00B4
:1004680072088400710E8300FE0E7E0E0900F500EE
:10047800831203130C12750899000C1A0800412AFC
:02400E0021FF90
:00000001FF
