:020000001028C6
:10000800FE00030EF1000408F2000A08F300831250
:1000180003137F08F400F8291128F801C1018301AE
:100028004B299030831203139800013032063304B1
:10003800031D61282430831603139800F0308312BF
:100048000313B400FF30B500FF30B600FF30B7002F
:100058003108A3003008A2002F08A1002E08A00034
:100068000030A7003D30A6000930A5000030A400EC
:10007800BC20831203132008B40721080318210F9A
:1000880046284728B50722080318220F4C284D2870
:10009800B60723080318230AB7073708BD00360830
:1000A800BC003508BB003408BA000030A30000309B
:1000B800A2000030A1001030A328203083160313BB
:1000C8009800C03083120313B400FF30B500FF302E
:1000D800B600FF30B7003108A3003008A2002F088F
:1000E800A1002E08A0000030A7003D30A60009306E
:1000F800A5000030A400BC20831203132008B40715
:1001080021080318210F89288A28B507220803180F
:10011800220F8F289028B60723080318230AB70749
:100128003708BD003608BC003508BB003408BA00E3
:100138000030A3000030A2000030A1004030A00031
:100148003D08A7003C08A6003B08A5003A08A40003
:10015800BC20831203132108B901B9072008B8018C
:10016800B80738088316031399008C160C12080078
:1001780083120313A901A31FCE28A009A109A2096C
:10018800A309A00A0319A10A0319A20A0319A30AB9
:10019800A901A90AA71FDF28A409A509A609A70973
:1001A800A40A0319A50A0319A60A0319A70A013004
:1001B800F5007508A9060030AD000030AC0000302D
:1001C800AB000030AA0023082204210420040319EC
:1001D8003429A801A80AA31BFF280130F500031041
:1001E800A00DA10DA20DA30DF50BF3280130F5000C
:1001F8007508A807EF280130F5000310AA0DAB0D0C
:10020800AC0DAD0DF50B012923082702031D162996
:1002180022082602031D162921082502031D162976
:1002280020082402031C27292008A4022108031CF3
:10023800210FA5022208031C220FA6022308031C73
:10024800230FA7022A1401300310A30CA20CA10C3F
:10025800A00CFF3E031D28290130A802031DFF281A
:10026800290803194229AA09AB09AC09AD09AA0A48
:100278000319AB0A0319AC0A0319AD0A2D08A30028
:100288002C08A2002B08A1002A08A00008000230B0
:100298008316031386008312031386010030B1000E
:1002A8000030B0002530AF008030AE000130B20021
:1002B8000030B30015200B178B171830DC210630DF
:1002C80083120313C0001330BF00B130BE00BE0B51
:1002D8006B29BF0B6B29C00B6B2972290130DC21FC
:1002E800063083120313C0001330BF00B130BE00C4
:1002F800BE0B7C29BF0B7C29C00B7C298329781C69
:1003080061298312031341080922781061290130F9
:100318008A000408840A82070034493427346D347B
:10032800203441346C346934763465342034613493
:100338006E3464342034613463346F347534733408
:10034800743469346334003448346F346C34613441
:1003580020344D3475346E3464346F3421340034B1
:1003680083120313A4002408A0002008A500250870
:1003780084008B2100380319C6290130A000200809
:10038800A507BB292408A0008030A100A009A10965
:10039800A00A0319A10A2508A2008030A30020089A
:1003A8002207F50021080318210A2307F600080090
:1003B80083120313A700A8012708B4217508F700C2
:1003C800770883120313A6002608280203180800DA
:1003D8002808270784008B2109220130F7007708B5
:1003E80083120313A807E8291A08F0007008C1004F
:1003F80078148C127408FF0073088A00720884004D
:10040800710E8300FE0E7E0E0900F50083120313A1
:0C0418000C12750899000C1A08000F2A3D
:02400E0021FF90
:00000001FF
